{
  "contractName": "Gallery",
  "abi": [
    {
      "inputs": [],
      "payable": false,
      "stateMutability": "nonpayable",
      "type": "constructor"
    },
    {
      "anonymous": false,
      "inputs": [
        {
          "indexed": true,
          "internalType": "address",
          "name": "from",
          "type": "address"
        },
        {
          "indexed": true,
          "internalType": "uint256",
          "name": "length",
          "type": "uint256"
        }
      ],
      "name": "ItemAdded",
      "type": "event"
    },
    {
      "constant": true,
      "inputs": [
        {
          "internalType": "uint256",
          "name": "",
          "type": "uint256"
        }
      ],
      "name": "items",
      "outputs": [
        {
          "internalType": "uint256",
          "name": "id",
          "type": "uint256"
        },
        {
          "internalType": "string",
          "name": "url",
          "type": "string"
        },
        {
          "internalType": "string",
          "name": "caption",
          "type": "string"
        }
      ],
      "payable": false,
      "stateMutability": "view",
      "type": "function"
    },
    {
      "constant": true,
      "inputs": [],
      "name": "owner",
      "outputs": [
        {
          "internalType": "address",
          "name": "",
          "type": "address"
        }
      ],
      "payable": false,
      "stateMutability": "view",
      "type": "function"
    },
    {
      "constant": false,
      "inputs": [
        {
          "internalType": "uint256",
          "name": "x",
          "type": "uint256"
        }
      ],
      "name": "set",
      "outputs": [],
      "payable": false,
      "stateMutability": "nonpayable",
      "type": "function"
    },
    {
      "constant": true,
      "inputs": [],
      "name": "get",
      "outputs": [
        {
          "internalType": "uint256",
          "name": "",
          "type": "uint256"
        }
      ],
      "payable": false,
      "stateMutability": "view",
      "type": "function"
    },
    {
      "constant": true,
      "inputs": [],
      "name": "getNumberofItems",
      "outputs": [
        {
          "internalType": "uint256",
          "name": "",
          "type": "uint256"
        }
      ],
      "payable": false,
      "stateMutability": "view",
      "type": "function"
    },
    {
      "constant": false,
      "inputs": [
        {
          "internalType": "string",
          "name": "_url",
          "type": "string"
        },
        {
          "internalType": "string",
          "name": "_caption",
          "type": "string"
        }
      ],
      "name": "addItem",
      "outputs": [],
      "payable": false,
      "stateMutability": "nonpayable",
      "type": "function"
    },
    {
      "constant": true,
      "inputs": [
        {
          "internalType": "uint256",
          "name": "index",
          "type": "uint256"
        }
      ],
      "name": "getItemByIndex",
      "outputs": [
        {
          "internalType": "string",
          "name": "",
          "type": "string"
        },
        {
          "internalType": "string",
          "name": "",
          "type": "string"
        }
      ],
      "payable": false,
      "stateMutability": "view",
      "type": "function"
    },
    {
      "constant": false,
      "inputs": [
        {
          "components": [
            {
              "internalType": "uint256",
              "name": "id",
              "type": "uint256"
            },
            {
              "internalType": "string",
              "name": "url",
              "type": "string"
            },
            {
              "internalType": "string",
              "name": "caption",
              "type": "string"
            }
          ],
          "internalType": "struct Gallery.Item",
          "name": "item",
          "type": "tuple"
        }
      ],
      "name": "addItemStruct",
      "outputs": [],
      "payable": false,
      "stateMutability": "nonpayable",
      "type": "function"
    },
    {
      "constant": true,
      "inputs": [
        {
          "internalType": "uint256",
          "name": "index",
          "type": "uint256"
        }
      ],
      "name": "getItemStructByIndex",
      "outputs": [
        {
          "components": [
            {
              "internalType": "uint256",
              "name": "id",
              "type": "uint256"
            },
            {
              "internalType": "string",
              "name": "url",
              "type": "string"
            },
            {
              "internalType": "string",
              "name": "caption",
              "type": "string"
            }
          ],
          "internalType": "struct Gallery.Item",
          "name": "",
          "type": "tuple"
        }
      ],
      "payable": false,
      "stateMutability": "view",
      "type": "function"
    }
  ],
  "bytecode": "0x6080604052600060025534801561001557600080fd5b50336000806101000a81548173ffffffffffffffffffffffffffffffffffffffff021916908373ffffffffffffffffffffffffffffffffffffffff160217905550610f74806100656000396000f3fe608060405234801561001057600080fd5b50600436106100935760003560e01c80637ed8a719116100665780637ed8a719146101205780638da5cb5b1461013c578063bfb231d21461015a578063f746d2b31461018c578063fc325efd146101a857610093565b80630feae47f1461009857806360fe47b1146100b65780636d4ce63c146100d257806376ce25c6146100f0575b600080fd5b6100a06101d9565b6040516100ad9190610d6e565b60405180910390f35b6100d060048036036100cb9190810190610b42565b6101e3565b005b6100da6101ed565b6040516100e79190610d6e565b60405180910390f35b61010a60048036036101059190810190610b42565b6101f7565b6040516101179190610d4c565b60405180910390f35b61013a60048036036101359190810190610a95565b6103b6565b005b610144610497565b6040516101519190610cda565b60405180910390f35b610174600480360361016f9190810190610b42565b6104bc565b60405161018393929190610d89565b60405180910390f35b6101a660048036036101a19190810190610b01565b610616565b005b6101c260048036036101bd9190810190610b42565b6106ce565b6040516101d0929190610cf5565b60405180910390f35b6000600254905090565b8060018190555050565b6000600154905090565b6101ff610882565b6002548210610243576040517f08c379a000000000000000000000000000000000000000000000000000000000815260040161023a90610d2c565b60405180910390fd5b6003600083815260200190815260200160002060405180606001604052908160008201548152602001600182018054600181600116156101000203166002900480601f0160208091040260200160405190810160405280929190818152602001828054600181600116156101000203166002900480156103045780601f106102d957610100808354040283529160200191610304565b820191906000526020600020905b8154815290600101906020018083116102e757829003601f168201915b50505050508152602001600282018054600181600116156101000203166002900480601f0160208091040260200160405190810160405280929190818152602001828054600181600116156101000203166002900480156103a65780601f1061037b576101008083540402835291602001916103a6565b820191906000526020600020905b81548152906001019060200180831161038957829003601f168201915b5050505050815250509050919050565b6103be610882565b60405180606001604052806002548152602001848152602001838152509050806003600060025481526020019081526020016000206000820151816000015560208201518160010190805190602001906104199291906108a3565b5060408201518160020190805190602001906104369291906108a3565b509050506002600081548092919060010191905055506002543373ffffffffffffffffffffffffffffffffffffffff167fbb93286bf5aa4db648045b04d0566e215c1df5d898c5f576bc6cb5ce6a1860d160405160405180910390a3505050565b6000809054906101000a900473ffffffffffffffffffffffffffffffffffffffff1681565b6003602052806000526040600020600091509050806000015490806001018054600181600116156101000203166002900480601f01602080910402602001604051908101604052809291908181526020018280546001816001161561010002031660029004801561056e5780601f106105435761010080835404028352916020019161056e565b820191906000526020600020905b81548152906001019060200180831161055157829003601f168201915b505050505090806002018054600181600116156101000203166002900480601f01602080910402602001604051908101604052809291908181526020018280546001816001161561010002031660029004801561060c5780601f106105e15761010080835404028352916020019161060c565b820191906000526020600020905b8154815290600101906020018083116105ef57829003601f168201915b5050505050905083565b806003600060025481526020019081526020016000206000820151816000015560208201518160010190805190602001906106529291906108a3565b50604082015181600201908051906020019061066f9291906108a3565b509050506002600081548092919060010191905055506002543373ffffffffffffffffffffffffffffffffffffffff167fbb93286bf5aa4db648045b04d0566e215c1df5d898c5f576bc6cb5ce6a1860d160405160405180910390a350565b6060806002548310610715576040517f08c379a000000000000000000000000000000000000000000000000000000000815260040161070c90610d2c565b60405180910390fd5b6003600084815260200190815260200160002060010160036000858152602001908152602001600020600201818054600181600116156101000203166002900480601f0160208091040260200160405190810160405280929190818152602001828054600181600116156101000203166002900480156107d65780601f106107ab576101008083540402835291602001916107d6565b820191906000526020600020905b8154815290600101906020018083116107b957829003601f168201915b50505050509150808054600181600116156101000203166002900480601f0160208091040260200160405190810160405280929190818152602001828054600181600116156101000203166002900480156108725780601f1061084757610100808354040283529160200191610872565b820191906000526020600020905b81548152906001019060200180831161085557829003601f168201915b5050505050905091509150915091565b60405180606001604052806000815260200160608152602001606081525090565b828054600181600116156101000203166002900490600052602060002090601f016020900481019282601f106108e457805160ff1916838001178555610912565b82800160010185558215610912579182015b828111156109115782518255916020019190600101906108f6565b5b50905061091f9190610923565b5090565b61094591905b80821115610941576000816000905550600101610929565b5090565b90565b600082601f83011261095957600080fd5b813561096c61096782610dfb565b610dce565b9150808252602083016020830185838301111561098857600080fd5b610993838284610ec7565b50505092915050565b600082601f8301126109ad57600080fd5b81356109c06109bb82610e27565b610dce565b915080825260208301602083018583830111156109dc57600080fd5b6109e7838284610ec7565b50505092915050565b600060608284031215610a0257600080fd5b610a0c6060610dce565b90506000610a1c84828501610a80565b600083015250602082013567ffffffffffffffff811115610a3c57600080fd5b610a4884828501610948565b602083015250604082013567ffffffffffffffff811115610a6857600080fd5b610a7484828501610948565b60408301525092915050565b600081359050610a8f81610f1a565b92915050565b60008060408385031215610aa857600080fd5b600083013567ffffffffffffffff811115610ac257600080fd5b610ace8582860161099c565b925050602083013567ffffffffffffffff811115610aeb57600080fd5b610af78582860161099c565b9150509250929050565b600060208284031215610b1357600080fd5b600082013567ffffffffffffffff811115610b2d57600080fd5b610b39848285016109f0565b91505092915050565b600060208284031215610b5457600080fd5b6000610b6284828501610a80565b91505092915050565b610b7481610e8b565b82525050565b6000610b8582610e5e565b610b8f8185610e7a565b9350610b9f818560208601610ed6565b610ba881610f09565b840191505092915050565b6000610bbe82610e53565b610bc88185610e69565b9350610bd8818560208601610ed6565b610be181610f09565b840191505092915050565b6000610bf782610e53565b610c018185610e7a565b9350610c11818560208601610ed6565b610c1a81610f09565b840191505092915050565b6000610c32601b83610e7a565b91507f4552524f523a20696e646578206f7574206f6620626f756e64733a00000000006000830152602082019050919050565b6000606083016000830151610c7d6000860182610cbc565b5060208301518482036020860152610c958282610bb3565b91505060408301518482036040860152610caf8282610bb3565b9150508091505092915050565b610cc581610ebd565b82525050565b610cd481610ebd565b82525050565b6000602082019050610cef6000830184610b6b565b92915050565b60006040820190508181036000830152610d0f8185610b7a565b90508181036020830152610d238184610b7a565b90509392505050565b60006020820190508181036000830152610d4581610c25565b9050919050565b60006020820190508181036000830152610d668184610c65565b905092915050565b6000602082019050610d836000830184610ccb565b92915050565b6000606082019050610d9e6000830186610ccb565b8181036020830152610db08185610bec565b90508181036040830152610dc48184610bec565b9050949350505050565b6000604051905081810181811067ffffffffffffffff82111715610df157600080fd5b8060405250919050565b600067ffffffffffffffff821115610e1257600080fd5b601f19601f8301169050602081019050919050565b600067ffffffffffffffff821115610e3e57600080fd5b601f19601f8301169050602081019050919050565b600081519050919050565b600081519050919050565b600082825260208201905092915050565b600082825260208201905092915050565b6000610e9682610e9d565b9050919050565b600073ffffffffffffffffffffffffffffffffffffffff82169050919050565b6000819050919050565b82818337600083830152505050565b60005b83811015610ef4578082015181840152602081019050610ed9565b83811115610f03576000848401525b50505050565b6000601f19601f8301169050919050565b610f2381610ebd565b8114610f2e57600080fd5b5056fea365627a7a723158200f72ed91c978223b84fde8abbcdcd27ad13c59e5e4d4976ab895b597b72bb9b46c6578706572696d656e74616cf564736f6c63430005100040",
  "source": "pragma solidity ^0.5.0;\npragma experimental ABIEncoderV2;   // required to pass structs as function parameter and return values\n\n/// @title Image Gallery\n/// @author Sven Meyer\n/// @notice only implements very basic functionality (add, retrieve)\n/// @dev functions passing structs can be tested using the experimental ABIEncoderV2\ncontract Gallery {\n\n    address public owner;\n\n    /// @dev always good to know who deployed the contract\n    constructor() public {\n        owner = msg.sender;\n    }\n\n    // storage value for basic testing\n\n    uint storedData;\n\n    function set(uint x) public {\n        storedData = x;\n    }\n\n    function get() public view returns (uint) {\n        return storedData;\n    }\n\n    uint itemCount = 0; // private - we do not want direct access to it\n\n    function getNumberofItems() public view returns (uint) {\n        return itemCount;\n    }\n\n    /// @dev data struct to store one gallery item (image url & caption)\n    struct Item {\n        uint   id;\n        string url;\n        // string mediatype;\n        string caption;\n    }\n\n    /// @dev items is a mapping from an Integer index to a Item struct\n    mapping (uint => Item) public items;\n\n    /// @dev ItemAdded event will be issued once a new item has been added\n    /// @return event.address is account which initiated the transaction\n    /// @return event.length is length of items after transaction\n    event ItemAdded(\n        address indexed from,\n        uint    indexed length\n    );\n\n\n    /// @dev add a new item to the image gallery\n    /// @param _url URL to the media file (image or video)\n    /// @param _caption Caption text for media item\n    /// @dev emits ItemAdded event\n    function addItem(string memory _url, string memory _caption) public {\n        Item memory item = Item({\n            id: itemCount,\n            url: _url,\n            caption: _caption\n        });\n        items[itemCount] = item;\n        itemCount++;\n        emit ItemAdded(msg.sender, itemCount);\n    }\n\n\n    /// @dev retrieve item by index from image gallery\n    /// @param index (starting with 0) of item within items\n    /// @return url URL to the media file (image or video)\n    /// @return caption Caption text for media item\n    /// @dev Item struct will be decomposed and the elements will be returned individually\n    function getItemByIndex(uint index) public view returns (string memory, string memory) {\n        require(index < itemCount, \"ERROR: index out of bounds:\");\n        return(items[index].url, items[index].caption);\n    }\n\n\n    /** EXPERIMENTAL STUFF - ABIEncoderV2 required (web3.js 1.x) */\n\n    /// @dev add a new item to the image gallery\n    /// @param item struct to be added to gallery\n    /// @dev emits ItemAdded event\n    /// @dev Passing structs is only supported in the new experimental ABI encoder - use with care!\n    function addItemStruct(Item memory item) public {\n        items[itemCount] = item;\n        itemCount++;\n        emit ItemAdded(msg.sender, itemCount);\n    }\n\n\n    /// @dev retrive item  by index as struct from image gallery\n    /// @param index (starting with 0) of item within items\n    /// @return Item struct\n    /// @dev emits ItemAdded event\n    /// @dev Passing structs is only supported in the new experimental ABI encoder - use with care!\n    function getItemStructByIndex(uint index) public view returns (Item memory) {\n        require(index < itemCount, \"ERROR: index out of bounds:\");\n        return(items[index]);\n    }\n\n}\n",
  "sourcePath": "/home/sum/DEV/innovation-lab-code-test/contracts/Gallery.sol",
  "compiler": {
    "name": "solc",
    "version": "0.5.16+commit.9c3226ce.Emscripten.clang"
  },
  "schemaVersion": "3.0.23",
  "updatedAt": "2020-02-06T11:43:52.977Z",
  "networkType": "ethereum",
  "devdoc": {
    "author": "Sven Meyer",
    "details": "functions passing structs can be tested using the experimental ABIEncoderV2",
    "methods": {
      "addItem(string,string)": {
        "details": "add a new item to the image galleryemits ItemAdded event",
        "params": {
          "_caption": "Caption text for media item",
          "_url": "URL to the media file (image or video)"
        }
      },
      "addItemStruct((uint256,string,string))": {
        "details": "add a new item to the image galleryemits ItemAdded eventPassing structs is only supported in the new experimental ABI encoder - use with care!",
        "params": {
          "item": "struct to be added to gallery"
        }
      },
      "constructor": {
        "details": "always good to know who deployed the contract"
      },
      "getItemByIndex(uint256)": {
        "details": "retrieve item by index from image galleryItem struct will be decomposed and the elements will be returned individually",
        "params": {
          "index": "(starting with 0) of item within items"
        },
        "return": "url URL to the media file (image or video)caption Caption text for media item"
      },
      "getItemStructByIndex(uint256)": {
        "details": "retrive item  by index as struct from image galleryemits ItemAdded eventPassing structs is only supported in the new experimental ABI encoder - use with care!",
        "params": {
          "index": "(starting with 0) of item within items"
        },
        "return": "Item struct"
      }
    },
    "title": "Image Gallery"
  },
  "userdoc": {
    "methods": {},
    "notice": "only implements very basic functionality (add, retrieve)"
  }
}